:020000040000FA
:0600000002011A02203487
:03002B000226E1C9
:030053000220AADE
:03006B000226ADBD
:10008300021EE3E5C754F84401F5C77901220000D5
:100093000080FB120086B90003020104E47944786E
:1000A30008B800028004F709D8FCE4794C7802B858
:1000B30000028004F709D8FCE490028178037908F0
:1000C3008002F0A3D8FCD9FA784390014A7A01BAA6
:1000D30000028007E493A3F608DAF97A837B099098
:1000E300014B787679038015E493A3AD82AE838ABE
:1000F300828B83F0A3AA82AB838D828E83D8E9D9C6
:10010300E77582527583C5740312012C758291754C
:100113008300740012012C75D00075814F754181E5
:10012300754202759F00020096C09FF59FE473D04D
:100133009F22D083D082C09FE493C0E0740193C018
:10014300E0740293F59F2201FF0000B40000280031
:100153002800283075A000A000A000A0000008001F
:1001630008E001F000100010001000100010001053
:100173000050005000500010001000D00700000095
:100183000000000F0001000500307507001000019A
:100193000081FF00000000FFBE05DC05C405FF026F
:1001A300020208025000A0000000E80302109001C0
:1001B3000000FB8F021490010000DA090234900161
:1001C3000000B302021490010000DB09021A90013F
:1001D3000000C902021490010000DC09021C900116
:1001E3000000CB02021490010000DD09021E9008FA
:1001F3000000CC02021490010000DE0902209001ED
:100203000000DF09FF0100FF200210900100000140
:1002130090021490010000430A02229000000000A3
:10022300000216900300001903D60BD60BD60BD68B
:100233000BD60BD60BD60BD60BD60BD60BD60BD6B3
:100243000BD60BB20ECA0EAC0EFFFF0B0943534382
:100253002053656E736F72020A00020106030216D1
:10026300184353432053656E736F72000000000000
:100273000000000000006400000032003C00460063
:10028300CE1000001002020128021090010000FEAF
:100293008F021490010000BF0A022E90000000A9F3
:1002A30007021690030000AA07021490010000C081
:1002B3000A022C90010000B007021490010000C153
:1002C3000A023690010000C20A021490010000C322
:1002D3000A022A90020000B207021690030000B33C
:1002E30007020202020202020202010D00000010D4
:1002F30001021090010000F88F0214900100001C0D
:100303000B022490010000B9070214900100001DA4
:100313000B020A90010000158F0214900100001EC9
:100323000B020890010000F98E0214900100001FD7
:100333000B020690010000938E021490010000202E
:100343000B020490010000B78E02149001000021FB
:100353000B022A8F010000A58E02149001000022D7
:100363000B021890010000818E02149001000023FB
:100373000B022890010000078F0214900100002453
:100383000B023290010000250B01E803053F100A20
:10039300FF000130750302010600000000000000A9
:1003A300000000000000000000000000000000004A
:1003B3000000000000FFFF0600800CE80312013577
:1003C3001CB70312013533B70312013564B70312A7
:1003D30001359FB703120135C9B703120135F3B7CE
:1003E300031201350AB80312013521B8031201358E
:1003F30038B80312013561B80312013574B803121A
:1004030001358AB8031201359DB803120135C4B80A
:100413000312013563A30212013567A402120135E9
:100423009FA402120135C2A402120135CDA4021207
:100433000135F0A402120135FFA502120135D4A63D
:10044300021201354FA702120135D7A70212013557
:1004530012A80212013549A802120135D7A80212C7
:100463000135B0A90212013510AA021201351BAAE7
:10047300021201359AAA021201359DAA0212013510
:10048300A0AA021201352FAB0212013532AB0212C0
:10049300013562AB021201358CAB021201357AAC25
:1004A300021201352CAD02120135DD8E0312013526
:1004B300058F03120135338F031201356A8F03123F
:1004C3000135C88F031201351390031201355E9075
:1004D300031201359E9003120135E4900312013596
:1004E300129103120135CF9103120135D9910312F1
:1004F3000135E69103120135199203120135E59294
:1005030003120135F19203120135099303120135E8
:10051300139303120135F6C10312013504C203120A
:1005230001351CC20312013534C203120135BAD49A
:100533000112013566D501120135E1D501120135EC
:1005430002D7011201353ED701120135E7D7011257
:100553000135CED80112013532DA0112013589DABB
:10056300011201350ADB01120135FADB01120135F3
:1005730047DC01120135CDDC01120135FFDC01122C
:10058300013513DF0112013555DF0112013573DF28
:1005930001120135F6DF01120135CAE001120135FE
:1005A30092E101120135DFEA02120135B2EB0212C8
:1005B30001355BEC02120135AEEC021201355EED42
:1005C30002120135EAED02120135D6EE02120135AF
:1005D30005EF0212013518F00212013560F0021224
:1005E300013535F10212013571F1021201358DF138
:1005F30002120135CEC40312013516A003120135D0
:100603002CA00312013552A0031201356EA103126F
:10061300013578A103120135ADA203120135A5A35B
:10062300031201353CF8021201356CF9021201354F
:100633009FF902120135E9F902120135B0FB0212EA
:100643000135EEB40112013558B501120135B7B6C3
:1006530001120135C7B601120135F4B60112013595
:100663004BB701120135F4B701120135FBB8011282
:100673000135C5B90112013525BB0112013568BB2E
:10068300011201350DBC011201355ABC01120135AD
:1006930080BC011201358EBE0112013593BE0112D9
:1006A300013598C001120135E5C00112013558C169
:1006B300011201358BC1011201352DC20112013521
:1006C300D6C2011201350EC30112013511C3011245
:1006D300013559C30112013599C301120135F0C324
:1006E30001120135AEAF03120135C6AF0312013556
:1006F3000EB00312013524B0031201356BB003129F
:1007030001357FB1031201350CB20312013557B223
:10071300031201355A4500120135664500120135B1
:10072300A14500120135E64500120135A646001227
:1007330001352C4700120135584700120135914706
:1007430000120135CF4900120135B34B00120135B8
:10075300994D00120135DC4E001201352A51001269
:1007630001353C520012013587530012013597546D
:1007730000120135B45400120135EF540012013553
:10078300115500120135745500120135355A001206
:100793000135CA5A001201351B5B00120135425B59
:1007A30000120135945B00120135B25B0012013572
:1007B3000C5C001201350B5D001201358F5D0012D8
:1007C30001359A9303120135A49303120135E7937C
:1007D3000312013502940312013592940312013579
:1007E300BA9403120135F794031201352E950312BF
:1007F3000135579503120135CC9503120135E19567
:1008030003120135F69503120135279603120135BC
:100813003B96031201356096031201359A96031233
:100823000135C69603120135499703120135929794
:1008330003120135BC9703120135E7970312013503
:10084300DDC0031201350080021201352E80021231
:1008530001357C81021201355C82021201357B82F3
:1008630002120135F882021201353B83021201356F
:10087300918402120135528502120135D987021281
:1008830001357A88021201357089021201356D8AA9
:1008930002120135C78B02120135528C0212013547
:1008A3007BBA03120135E4BA0312013538BB0312D4
:1008B30001355FBB0312013590BB031201350F985D
:1008C300031201357C9803120135C39803120135D5
:1008D300DB9903120135D79A03120135BA9B031230
:1008E30001355BD3021201359DD3021201356FD45A
:1008F3000212013548D50212013542D602120135E2
:1009030024D7021201358DD70212013543D80212C2
:100913000135B7D80212013523D9021201354CD95A
:1009230002120135C6D9021201355FDA021201350E
:10093300C4DA02120135D9DA021201351FDB0212C1
:10094300013538DB021201359DDB02120135A0DBD4
:1009530002120135DCA90312013504AA0312013581
:1009630042AA0312013500AB0312013567AB031230
:10097300013583AB03120135ABAB03120135DBAB9E
:1009830003120135EAAB0312013567AC03120135DB
:100993008DAC03120135DDC4011201357BC6011292
:1009A300013596C801120135D2C801120135FFC8BD
:1009B30001120135E4C9011201352BCA01120135B7
:1009C3006FCA0112013581CA01120135C1CA011270
:1009D3000135EECA0112013539CB0112013579CB4C
:1009E30001120135A7CB01120135F9CB01120135F3
:1009F30089CC0112013527CF011201353DD10112F6
:100A030001357BD1011201350CD30112013551D3CC
:100A130001120135C8D30112013512D40112013577
:100A23006AC102120135E9C102120135ABC70212D4
:100A33000135BAC80212013522CA02120135B9CAF8
:100A430002120135F65D001201353F5E00120135D9
:100A53006C5E001201359F5E00120135AC5E001220
:100A63000135B85E00120135CA5E00120135B15F6F
:100A7300001201350F600012013544600012013588
:100A8300876100120135D46100120135F86100124B
:100A93000135656200120135236300120135DC6301
:100AA30000120135496400120135FB64001201355F
:100AB3000B65001201359265001201355166001273
:100AC30001357E6600120135F76600120135546761
:100AD300001201359E67001201353468001201359A
:100AE300FF6800120135B46900120135296A00124A
:100AF30001358A6A00120135F46A001201352D6B43
:100B030000120135CF6B00120135DF6C0012013585
:100B13001F6D001201353C6D001201355B6D001233
:100B23000135A26D00120135C76D00120135F46D58
:100B3300001201356E6E00120135AF6E00120135E1
:100B4300D36F00120135837000120135DA70001281
:100B530001354471001201355D7100120135A0B7F2
:100B630002120135F3B702120135FFB70212013544
:100B7300D4B802120135FBB80212013536B902129C
:100B83000135A2B902120135DEB90212013517BAD5
:100B9300021201352FBA0212013584BA021201354D
:100BA3009DBA02120135E6BA02120135F9BA0212F0
:100BB300013513BB0212013529BB021201355CBC9E
:100BC30002120135A3BD02120135A5BE0212013581
:100BD3009FBF0212013509270012013517F20112D6
:100BE300013547F2011201350FF60112013566F79F
:100BF300011201352FF801120135AFF90112013548
:100C030080FA01120135BDFA01120135E0FA011231
:100C130001351EFB0112013527FB0112013571FB62
:100C2300011201357BFB0112013525FC011201354F
:100C3300FEFC0112013552FD01120135B4FD011212
:100C4300013507FE0112013536FE0112013573FE2F
:100C53000112013561A301120135C8A60112013544
:100C6300CEA60112013550AC01120135C9B00112F3
:100C730001359FB4011201357C9C03120135F29CAE
:100C830003120135089D03120135499D03120135F5
:100C9300839D03120135FC9D03120135379E031218
:100CA3000135AA9E03120135E89E03120135F19E18
:100CB30003120135FD9E03120135199F03120135FD
:100CC300449F031201355A9F03120135839F031278
:100CD3000135E69F031201351A8A031201352D8A65
:100CE30003120135478A03120135708A0312013555
:100CF300B38A03120135F28A03120135308B0312D2
:100D03000135958B03120135AA8B03120135B58B7F
:100D130003120135C28B03120135D98B031201353E
:100D2300E78B03120135F28B03120135FE8B03129D
:100D33000135118C031201351C8C031201353F8CD4
:100D430003120135E68C03120135F68C03120135CB
:100D5300108D031201352D8D03120135498D0312B8
:100D630001356E8D03120135798D031201358E8D98
:100D730003120135A28D03120135038E03120135CF
:100D8300098E031201350F8E03120135158E0312DE
:100D930001352D8E03120135608E031201359471D6
:100DA30000120135187200120135C77200120135A5
:100DB300267400120135477600120135337700128D
:100DC30001356877001201358A77001201353978C9
:100DD30000120135317A001201355A7A00120135B9
:100DE300EC7A001201351E7B001201352B7B0012B9
:100DF3000135827B00120135A87B00120135157E77
:100E030000120135187F00120135707F0012013581
:100E1300ABE301120135B5E4011201359CE5011282
:100E23000135A6E501120135C8E501120135D4E506
:100E3300011201356DE7011201359CE701120135FD
:100E4300B8E80112013511E90112013577EA0112FF
:100E5300013556EB01120135B2EB011201351FECDE
:100E6300011201355AEC0112013599EC01120135D9
:100E730052EF011201356CEF01120135F8EF011247
:100E8300013506F0011201355FF0011201356DF0F5
:100E930001120135E0F00112013544F1011201356F
:100EA3008EF101120135359802120135579802125D
:100EB30001357D9A02120135929D02120135AA9ED7
:100EC300021201355D9F021201353FA00212013566
:100ED300D6B803120135FBB8031201356DB90312FD
:100EE300013565E3021201356EE30212013577E342
:100EF300021201354EE402120135FFE502120135FB
:100F030035E6021201356FE602120135A5E602123B
:100F13000135DFE60212013513E7021201353FE71F
:100F23000212013588E702120135C2E702120135C8
:100F33000BE80212013563E80212013598E8021248
:100F43000135F3E8021201352DE9021201357EE97C
:100F530002120135B4E902120135EEE9021201353C
:100F63001CEA021201353FEA021201354EFF01125B
:100F730001357AFF01120135D5FF01120135DFFF7B
:100F830001120135EFFF01120135C4DB02120135F5
:100F9300D9DB0212013535DC02120135A0DC021265
:100FA3000135E8DC021201355ADD0212013589DD13
:100FB3000212013597DD02120135F9DD0212013506
:100FC30037DE0212013552DE02120135EDDE021266
:100FD300013596DF0212013519E00212013552E0A4
:100FE30002120135DDE00212013534E1021201354E
:100FF30093E102120135A5E102120135CBE10212A0
:101003000135D4E1021201352EE3021201356BBE24
:101013000312013549BF0312013563FD0212013585
:10102300A8FD02120135EEFD0212013580FF021206
:101033000135CDC203120135E8C203120135F8C2EE
:10104300031201354FC30312013502F202120135B7
:1010530022F20212013528F30212013574F302124F
:10106300013594F302120135E7F30212013554F40A
:10107300021201359AF402120135FEF4021201350F
:10108300AAF7021201352BF8021201359BC3031292
:10109300013529BD031201355ABD0312013584BD43
:1010A30003120135A4BD0312013502BE031201353B
:1010B300D38C02120135458F02120135E9900212D9
:1010C30001351491021201358F92021201357B947E
:1010D30002120135F5960212013507980212013505
:1010E300E3CA02120135F3CA0212013582CB02129E
:1010F3000135A0CB02120135A3CB02120135D7CBA8
:10110300021201352CCC021201353FCC02120135FB
:10111300A7CC02120135F5CC0212013543CD0212E0
:101123000135A0CF02120135E8CF0212013576D185
:1011330002120135008003120135258003120135A7
:1011430060800312013544C40312013514270012D1
:101153000135252A001201357F2B00120135122D8E
:1011630000120135BD2D00120135602E001201352C
:10117300F82E00120135272F00120135E03300123B
:101183000135773400120135B335001201351B36B2
:1011930000120135CF3600120135853900120135B1
:1011A300BF3900120135293A00120135873A00127E
:1011B3000135E53A00120135423B00120135313C5D
:1011C30000120135773C00120135BC3C0012013599
:1011D300DF3C00120135263E001201353A3E001273
:1011E3000135433F00120135823F00120135AE3F06
:1011F3000012013501400012013522400012013571
:10120300604000120135A64200120135E742001288
:101213000135824300120135ED43001201352645A5
:1012230000120135ACC503120135D5AC03120135EB
:10123300A0AF03120135E2FF02120135A5BF03126D
:101243000135B5BF03120135CFBF03120135D7C036
:1012530003120135D5A6031201357FA70312013509
:10126300C1A903120135D6BB0312013508BC031211
:10127300013568BC031201357FBC03120135DBBCA9
:101283000312013518BD031201351BBD03120135CD
:101293002085031201353F8503120135D5850312DD
:1012A3000135D3860312013533890312013593893E
:1012B30003120135FC8903120135F87F0012013551
:1012C30081B20312013568B403120135D4B4031299
:1012D30001351FB50312013522B50312013589B556
:1012E3000312013546B603120135C4B603120135A4
:1012F300AFA303120135E2A303120135EAA40312DB
:1013030001350EA6031201359DAD0212013579AEEA
:1013130002120135C0AE02120135FDAE02120135D3
:101323006BAF02120135C5AF0212013535B002129F
:1013330001350DB10212013500B20212013577B247
:10134300021201351AB402120135A7B40212013593
:101353001AB50212013596B502120135ADB5021266
:101363000135DAB60212013534B70212013539906C
:1013730001120135D19401120135C29701120135D1
:10138300EB9701120135149801120135C698011229
:101393000135AA9A01120135E49B0112013518A106
:1013A3000112013551A10112013595A10112013537
:1013B300A1A201120135BE7F00120135C4FF02E074
:1013C30066701008A3E066700A08A3E0667004085C
:1013D300A3E06622C3E7960809E7960809E796089B
:1013E30009E79622C3E09608A3E09608A3E09608CF
:1013F300A3E09622C021C3E096F52108A3E096421C
:101403002108A3E096422108A3E09645217001D369
:10141300D02122080808EAC0E0EBC0E086F0E7A488
:10142300FA180986F0E7A42AFA180986F0E7A42A2D
:10143300FA180986F0E7A42AFA1986F0E7A4FBE56F
:10144300F02AFA190886F0E7A42BFBE5F03AFA191B
:101453000886F0E7A42BFBE5F03AFA18180986F0A2
:10146300E7A4C5F02BFBE43AFA1908E7C5F0C6A4D4
:1014730026F6E5F03BFBE43AFA1886F0E7A4F6E536
:10148300F00826F6E43B08F6E43A08F6D0E0FBD091
:10149300E0FA22E4CFC0E0E4CEC0E0E4CDC0E0E473
:1014A300CCC0E075F020E626F608E633F608E6330E
:1014B300F608E633F6181818EC33FCED33FDEE337B
:1014C300FEEF33FFC3EC9709ED9709EE9709EF970A
:1014D300191919400FFFEC97FC09ED97FD09EE97D9
:1014E300FE191906D5F0BFECF709EDF709EEF70978
:1014F300EFF7191919D0E0FCD0E0FDD0E0FED0E001
:10150300FF226016080808C6C313C618C613C618F8
:10151300C613C618C613C6D5E0EA22700908080820
:10152300226016181818C6C333C608C633C608C6C1
:1015330033C608C633C6D5E0EA22E627F60809E62D
:1015430037F60809E637F60809E637F622E026F605
:1015530008A3E036F608A3E036F608A3E036F62241
:10156300E026F008A3E036F008A3E036F008A3E095
:1015730036F022C3E697F60809E697F60809E697D8
:10158300F60809E697F622C3E096F008A3E096F082
:1015930008A3E096F008A3E096F022E056F608A32D
:1015A300E056F608A3E056F608A3E056F622E05606
:1015B300F008A3E056F008A3E056F008A3E056F0C5
:1015C30022E0F608A3E0F608A3E0F608A3E0F6227B
:1015D300E6F008A3E6F008A3E6F008A3E6F022E0AD
:1015E300FAA3E0FBA3E0FCA3E0FD22EAF0A3EBF007
:1015F300A3ECF0A3EDF022E0F8A3E0F9A3E0FAA353
:10160300E0FB22E8F0A3E9F0A3EAF0A3EBF022CA9F
:10161300C0E0E6F0A308DAFAD0E0FA22CAC0E0E0BC
:10162300A3C582CCC582C583CDC583F0A3C582CCB7
:10163300C582C583CDC583DAE6D0E0CA22C3E49868
:10164300F8E499F91216818026C3E49AFAE49BFB25
:10165300E920E7E9121681E498F8E499F922C3E452
:1016630098F8E499F9121681E498F8E499F9C3E437
:101673009AFAE49BFB22EB20E7CFE920E7E0B900ED
:1016830010BB0008E88AF084F8AAF022E4FBC8FA49
:1016930022EB70227B10C833C8C933C9335007C348
:1016A3009AC3DBF280069A50012ADBEAC833F4C8F6
:1016B300C933F4C9FA2275F008E4C833C8C933C979
:1016C30033C99AC99B5004C92AC93BD5F0ECFBC85E
:1016D30033F4C8E4C9FA22600D08C6A2E713C6189A
:1016E300C613C6D5E0F322600C08C6C313C618C6DA
:1016F30013C6D5E0F422700422600D18C6C333C6A6
:1017030008C633C6D5E0F41822254110AF08F541C9
:10171300400C15428008F54140021542D2AF220029
:10172300C0D0254110AF08F541500C05428008F5A3
:101733004150020542D2AFD0D0222541F58210AFED
:1017430008F541400C15428008F54140021542D28C
:10175300AF854283222541F582E43542F583222574
:1017630041F8E43542F9222541FAE43542FB2225CA
:1017730041FCE43542FD22E4732541C582C0E0E526
:101783004234FFC583C0E0E541C3958224F810AF1E
:10179300088583428582418008858342858241D2C0
:1017A300AFCEF0A3E520F0A37821E608F0A3DEFA9C
:1017B300EFF0A3E58124FAF8E608F0A3E608F0A326
:1017C300E608F0A30808E608F0A3E608F0A31581ED
:1017D3001581D0E0FED0E0F8158115811581E8C0B0
:1017E300E0EEC0E0222541C582C0E0E54234FFC5FA
:1017F30083C0E0E541C3958224F910AF0885834295
:101803008582418008858342858241D2AFCEF0A391
:10181300E520F0A37821E608F0A3DEFAEFF0A3E5D4
:101823008124FBF8E608F0A3E608F0A30808E6081D
:10183300F0A3E608F0A315811581D0E0FED0E0F80F
:1018430015811581E8C0E0EEC0E022854283854121
:1018530082E0A3FEE0A3F5207821E0A3F608DFFAF7
:10186300E0A3FFE0A3C0E0E0A3C0E0E0A3C0E0E0AA
:10187300A3C0E0E0A3C0E010AF08858241858342A6
:101883008008858241858342D2AFD083D082020112
:1018930032854283854182E0A3FEE0A3F5207821CF
:1018A300E0A3F608DFFAE0A3FFE0A3C0E0E0A3C0F3
:1018B300E0E0A3C0E0E0A3C0E010AF08858241856B
:1018C30083428008858241858342D2AFD083D08210
:1018D30022C0D02541C582C0E0E54234FFC583C0A4
:1018E300E0E541C3958224F310AF088583428582E6
:1018F300418008858342858241D2AFC8F0A3E9F0D5
:10190300A3EAF0A3EBF0A37921E709F0A3D8FAEC5B
:10191300F0A3EDF0A3EEF0A3EFF0A3D0E0F0A3D09B
:10192300E0F0A3D0E0F0A3E520F0A3E5F0F0A322DC
:10193300854283854182E0C0E0A3E0F9A3E0FAA3F6
:10194300E0FBA37821E0F608A3DFFAE0FCA3E0FDC7
:10195300A3E0FEA3E0FFA3E0C0E0A3E0C0E0A3E0B8
:10196300F5D0A3E0F520A3E0A3F5F010AF0885833D
:10197300428582418008858342858241D2AFD082ED
:10198300D083D0E0F8D0E032740480067402800281
:101993007401C0E0F40412173DD0E0121612227451
:1019A30004800474028000CCC0E0EDC0E0E541C3D4
:1019B3009CCCAD4250011D10AF068C418D42800678
:1019C3008C418D42D2AF12161FD0E0FDD0E0FC2235
:1019D300D083D082E9C0E0E493A3C386F0C5F09539
:1019E300F0F908E493A386F0C5F095F0700BE49347
:1019F300A3C3994005E9048002A3E475F002A4257A
:101A030082F582E5F03583F583D0E0F9E493A3C052
:101A1300E0E493C0E022D083D082ECC0E0EDC0E0EC
:101A2300E493A3FCE493A3FDED4C600D121A65EC63
:101A330024FFFCED34FFFD80EFE493A3FCE493A3C8
:101A4300FDED4C600D121AA4EC24FFFCED34FFFDF8
:101A530080EFD0E0FDD0E0FCE493A3C0E0E493C0CA
:101A6300E022C0E0C3E49396087401939618400FF4
:101A7300E49366700808740193661870007019A3E4
:101A8300A3C3E49396087401939618A3A3400DD0BF
:101A9300E0D0E0D0E0021A55A3A3A3A3A3A3D0E010
:101AA30022C0E0C0F088F0E49366700808740193E4
:101AB30066187000A8F0A3A3700BD0F0D0E0D0E0BC
:0C1AC300D0E0021A55A3A3D0F0D0E0221E
:101AD00074F51217E8EAFEEBFFEE2434F8EF340059
:101AE000F988218922EE2435121BFCF8EE243712E6
:101AF0001BFCF523EC8523F0A4FCAAF08523F0ED74
:101B0000A42AFDE82CF8E43DF97A257B0012168121
:101B1000EA852182852283F074075AF87401B8009F
:101B2000028004C333D8FCFBEA131313541FF8EEEE
:101B300028F8EF3400F9E8245DF582E9121BFF5B19
:101B40006003EA801CEE2436121BFCF5F0EA84A840
:101B5000F0EE28F8EF3400F9E82438F582E9121B9A
:101B6000FFF97F0402189474F51217E8EAFEEBFF00
:101B7000EE2434121BFCC0E0EE2435F582EF340075
:101B8000F583D0E0F08E828F83A3A3A3A3A3E0FA12
:101B9000A3E0FB8E828F83A3A3A3A3A3A3A3E0FC54
:101BA000A3E0FDECC39AF523ED9BF524EE247FF52D
:101BB00021EF3400F522852182F583E06401702B4A
:101BC000EE2480F582EF3400F5831219A6121C056D
:101BD0007402121722E960137CDC7D04EEFAEFFB3D
:101BE000120AFE852182852283E4F0AC23AD24EE27
:101BF000FAEFFB121AD0122699021B62F582EF341B
:101C000000F583E022C082C083854182854283E063
:101C1000F8A3E0F9C3EA9CEB9D5010C3EC98ED9952
:101C2000401BC3EA98EB995014800EC3EA98EB99D5
:101C30004007C3EC98ED994004790180027900D007
:101C400083D08222EAC39CFAEB9DFB2274ED12172B
:101C5000E89003A2E064086005E06407702C9061DE
:101C6000C8E060269003D0E0F874FF68601CE87557
:101C7000F003A4C8AAF02AF974D228FE740339FF2D
:101C80008E828F83A3A3A3E070057900021DECEE82
:101C90002468F529EF3400F52A906060E0852982F8
:101CA000852A83F07523457524057521007522006A
:101CB000E5D914F527E5D95403F528601CEE2482F4
:101CC000F525EF3400F526740365286058E5276094
:101CD00013EE2467121BFC700B793DEEFAEFFB123A
:101CE0000B2280A6900540E0640160268525828550
:101CF0002683E06004780480027800852721E521AE
:101D0000C398FA95E0FB1209A88A218B22EA4522A2
:101D10007006120D80021C8A852582852683E0705C
:101D2000048A238B2478008016E5D9C0E0882BE54F
:101D300023252BF582E5243400F583D0E0F008E874
:101D4000C3952740E4852582852683E0602874FCBE
:101D50002527F527782312198FAC27A928EEFAEF4B
:101D6000FB120BD07402121722E9700AAA21AB22CF
:101D70001212DE021CD97403652860588527257568
:101D80002600782512198FAC23AD24AA21AB22128C
:101D90000B947402121722852982852A83E0F87435
:101DA0008068700575257F80028825E525F52378F4
:101DB00023121993E528F5237823121993A927AC48
:101DC00021AD229003D0E0FA7B0012084074021289
:101DD000172280139003A2E06408600BAC23AD24AB
:101DE000EEFAEFFB120C66120D8C79017F0C0218D3
:101DF0009474F31217E874FC12170CEAFEEBFF89D7
:101E000021A2AFE433F522C2AFEE2463F523EF3411
:101E100000F5248010AA23AB24120B4C1212DE9082
:101E200004E3E004F0852382852483E0F8A3E0F94D
:101E3000E849602FE82402FAE93400FBEA2402F5BD
:101E400025EB3400F526782512198F8A828B83E0E2
:101E5000FCA3E0F9EEFAEFFB120B4074021217221A
:101E6000E960B29004E3E060579004E4E0F8900485
:101E7000E3E0C398500C7402652170449004E5E0DF
:101E8000603E8E828F83A3A3A3A3E0854182854217
:101E900083121ED07402121758E8121ED09004E26A
:101EA000E028F07402121758AC82AD838541828518
:101EB0004283AA82AB83790112084C9004E3E4F0D8
:101EC000E522A2E092AF74041217227F0602189452
:101ED000F0A3E4F09004E3E0F82200008544878555
:101EE00045C622C0E074EF1218D4A2AFE433FEC29C
:101EF000AF759B00906182E0A2E05012E591A2E0F4
:101F0000500C7591FE740165447003121C4CE0A2E4
:101F1000E55051E591A2E5504B7591DF9003A2E0A9
:101F200064076005E06408702374016544703579C6
:101F3000019003D0E0FA75F003A4CAA8F028FB745E
:101F4000D22AFA74033BFB121DF18018E0640D7075
:101F5000139003C4E004F064287002E4F07A00E017
:101F6000F9120D92906182E0A2E6400302200AE598
:101F700091A2E6400302200A7591BF9003A2E0649B
:101F8000057008120CA8120CB48003120CAE754434
:101F900000120D20E99003A3F07900120D14120A2B
:101FA000687A017B009003A1E0F9120FE4907803B6
:101FB000E064427055900544E014F0704DC2AF12D9
:101FC0001FC200784DD0E0F618D0E0F6E59F540728
:101FD00070057522FF800375227FC4C0E0784CE64F
:101FE000F52108E65522F522740B78211216EAD065
:101FF000E02521F8906270E0A2E740F8E8C3339052
:102000006272F0906270E0D2E0F0906181E0A2E351
:102010005009E5E9A2E3500375E9F7A3E0A2E75010
:1020200009E591A2E7500375917FEEA2E092AF7FA0
:1020300004021933C0E0C0D0C082C083906183E045
:10204000A2E05009E5BFA2E0500375BFFEE0A2E1A7
:102050005009E5BFA2E1500375BFFDE0A2E25009BF
:10206000E5BFA2E2500375BFFBE0A2E35009E5BF64
:10207000A2E3500375BFF7E0A2E45009E5BFA2E474
:10208000500375BFEFE0A2E55009E5BFA2E550039C
:1020900075BFDFE0A2E65009E5BFA2E6500375BFB9
:1020A000BFD083D082D0D0D0E032C0E074F212181A
:1020B000D4E5A7A2E4500FE5A1A2E4500953A7EF8D
:1020C00075A1EF1220FEE5A7A2E5500CE5A1A2E55F
:1020D000500653A7DF75A1DFE5A7A2E15009E5A1EE
:1020E000A2E1500375A1FDE5A7A2E2500CE5A1A273
:1020F000E2500653A7FB75A1FB7F0102193374F868
:102100001217E87544019003A2E0640670077A0094
:102110007B00120C90A2AFE433FED2AF9003A8E094
:10212000640170187A207B009003A1E0F912106E10
:102130007A207B009003A1E0F9120FEA906182E01F
:10214000D2E6F0900541E0602185C64580169003F7
:10215000A7E064017008E5C654F84405F5C653BE0F
:10216000FC121EDC7401654460E4EEA2E092AF7FD5
:10217000010218948E468F4785824B85834A85419C
:1021800082854283E0CEA3E0CF854B82854A83EBF4
:10219000C9EAC8EDCBECCA75F010C3E833C8E9331F
:1021A000C9EA33CAEB33CBC3EA9EF549EB9FF54846
:1021B000B35004AB48AA49EC33CCED33CDD5F0DABB
:1021C000AE46AF472274E91217E874FA12170CEA08
:1021D000FEEBFF8C218D229003A2E024F7C394052F
:1021E00050067529010222F0120C068A238B24EA7C
:1021F000452470030222ED120CC68A258B26120C90
:10220000C6EA65257003EB652660ECEEFCEFFD8504
:102210004182854283AA82AB83120CCC85238285BE
:102220002483A3A378251215C4908F7878251215DE
:102230009E854182854283782D1215C4908F7878CF
:102240002D12159E7825792D1213D7501F782579D8
:102250002D121576908F5478251213F74047852557
:102260002985262A85272B85282C8045908F548503
:102270002D29852E2A852F2B85302C78297925121A
:10228000157678291213F7501C752900752A0075E8
:102290002B00752C017829792D121576782979254E
:1022A00012153D800C752901752A00752B00752CBF
:1022B000007409782912151E908FC878251215C44C
:1022C000782979251214969003A2E06408600AE048
:1022D00064066005E064057020908F587829121319
:1022E000F75016908F5C7829121550800C752900D4
:1022F000752A00752B00752C008521828522837834
:10230000291215D374061217227F1002189474F73D
:102310001217E8120CDE90053FE064017010906225
:1023200045E4F0A3F053F4F343FE0C5390F3120C86
:102330007EE5C654804449F5C6E59E547F644970E5
:10234000F8906185740FF090053DE0F47002A3E011
:10235000602C75210175220090053DE07821121650
:10236000F9E521F4FAA3E0600814600A14600C8017
:102370000DEA52808008EA52908003EA52A0790068
:102380007F0202189474F71217E8E9FEEAFF74015D
:102390006E700C7A807B009003A1E0F9120FE4903C
:1023A000270CE493F46008E493F9120A4A80095375
:1023B000C680E59E547F70FA120C8490053FE0645D
:1023C000017003120A8090053DE0F47002A3E06002
:1023D0002A75210175220090053DE078211216F939
:1023E000AA21A3E0600814600A14600C800DEA4280
:1023F000808008EA42908003EA42A0120C068A21FB
:102400008B22A821A922E8496017E5E170FCE824A5
:1024100014F582E93400F583E0F874FF68600288FF
:10242000E174016F700A7A019003A1E0F912103E85
:1024300002238074F11217E88A218B228C238D24C9
:10244000908F78782112159E740F121758782512E4
:1024500015C4908F78782512159E7821792512134E
:10246000D7908F5450107821792512157678211243
:1024700013F74014800E78257921121576782512ED
:1024800013F750047901800279007F0802189474D0
:10249000ED1217E88A218B228C238D24908F787877
:1024A0002112159E741312175878251215C4908F97
:1024B00078782512159E782579211213D740117846
:1024C000217925121576AA21AB22AC23AD248022D6
:1024D000752900752A00752B00752C01782979253E
:1024E0001215767829792112153DAA29AB2AAC2B31
:1024F000AD2C7F0C021894908F7878211215C48A25
:10250000828B8378211215B17F0402189474F5121E
:1025100017E88C828D8378211215C48A828B837888
:102520002112158A122561C3E098F0A3E0991225C3
:1025300053401E908F8C78211215C48A828B837829
:10254000211215638E828F83E02420F0A3E0344EA5
:10255000F080A4F08E828F83C3E09420A3E0944E99
:1025600022EA2404F8EB3400F9E8FEE9FF8C828DBE
:1025700083A3A3A3A3E0F8A3E0F98E828F83227440
:10258000F51217E8E9FE9004F7E0FAA3E0FBEEC3CA
:1025900033F8E433F974C928F582748E39F583E091
:1025A0002AF521A3E03BF522782112198F908FD0D4
:1025B0001215E212217474021217228A218B228CC6
:1025C000238D2474107821121505AA21AB227F04D3
:1025D00002189474F11217E88A258B268C278D280F
:1025E000740F121758E0FAA3E0FB7411121758E0A9
:1025F000F521A3E0F522782112198FEA2401F521B3
:10260000EB3400F522E4F523F52478257921121422
:1026100016908F6878211215C47825792112141626
:10262000AA25AB26AC27AD281221747402121722FA
:102630008B22EA452260047A0180027A00EC2AFCAF
:10264000ED3400FD7413121758E0F8A3E0F9E8FE2A
:10265000E9FFECF8EDF97A717B0212168188218985
:1026600022E4F523F5248E828F8378211215D3EC92
:10267000F8EDF97A717B021216818A218B2274059A
:1026800078211216F98E828F83A3A3A3A3E521F0EC
:10269000A3E522F07F08021894C082C083E990600D
:1026A00000F0D083D08222C2AF02000022C0E074CA
:1026B000F21218D4A2AFE433FED2AFE589A2E04013
:1026C00006E589A2E1500312127E75890075890022
:1026D000C2C5754300EEF8EEA2E092AF7F01021989
:1026E00033C0E0C0D0E8C0E0E9C0E0A2AFE433F816
:1026F000D2AFC2C7754300E8F9E8A2E092AFD0E0DC
:10270000F9D0E0F8D0D0D0E032020132FFFFFFFF75
:10271000FFFFFFFF74EE12177C74FA12170C8A2366
:102720008B24E9FF8C218D227E008523258524269C
:1027300078251219D3000410F1295C277F279E27E2
:10274000C127E427072838285B287228A2285229A5
:1027500075299829C629F129F129CB2874016F70B0
:1027600019852182852283E0C39403500D8521823F
:10277000852283E0900BC4F080027E18022A19742F
:10278000026F7015852182852283E0F8A3E0F9901D
:102790000BC5E8F0A3E9F080027E18022A19740143
:1027A0006F7019852182852283E0C39402500D85C4
:1027B0002182852283E09007C2F080027E18022ADF
:1027C0001974016F7019852182852283E0C39405F5
:1027D000500D852182852283E09007C3F080027E20
:1027E00018022A1974016F7019852182852283E0ED
:1027F000C39402500D852182852283E09007C4F0A6
:1028000080027E18022A1974106F702775251075C2
:102810002600782512198FAC21AD227AC57B0712CC
:102820000F9074021217228A258B26852582852611
:102830008380027E18022A1974016F701985218223
:10284000852283E0C39402500D852182852283E096
:102850009007D5F080027E18022A1974016F700D5E
:10286000852182852283E0900BC8F080027E1802C9
:102870002A1974046F7026908FD078251215C4859C
:10288000218285228378251213E7501185218285C4
:1028900022831215FA9007D712160680027E1802BC
:1028A0002A19EF702112060CE970131211CAE9F50A
:1028B000257950121368E9F5261211B8800A90089C
:1028C0006A7401F080027E18022A1974076F707D05
:1028D000752706752800782712198F852182852291
:1028E00083A3AC82AD83740212176A120F9674022E
:1028F0001217228A298B2A852927852A287C007D80
:1029000000AA41AB42852182852283E0F912115E43
:10291000E9F525E525C3940A502F12060CE9701538
:10292000A9251211D0E9F5267950121368E9F52787
:102930001211B8801A752600746B2525F58274086B
:102940003526F5837401F080067E0280027E18022F
:102950002A1974016F7019852182852283E0C3943E
:1029600002500D852182852283E09007D6F08002F7
:102970007E18022A1974016F7019852182852283BD
:10298000E0C3940A500D852182852283E0900BC715
:10299000F080027E18022A1974016F702585218249
:1029A000852283E0C394074019852182852283E034
:1029B000C39411500D852182852283E0900BC9F0CC
:1029C00080577E18805374016F7022900869E0F57B
:1029D00025852182852283E0900869F0E5257039FC
:1029E000900869E0640170311211B8802C7E188063
:1029F00028C3E5239427E5249400501B74026F70CC
:102A000016852182852283E0FCA3E0FDAA23AB2466
:102A10001204AAE9FE80027E02EEF9740612172261
:102A20007F0A02184E74F212177C8A218B22ECFE68
:102A3000EDFF75230085212585222678251219D3DF
:102A400000040E582B632A732A872A972AA72AB7CD
:102A50002ADF2AEF2AFE2A582B0D2B1C2B2B2B3A70
:102A60002B492B900BC4E0C0E08E828F83D0E0F026
:102A7000022B78900BC5E0F8A3E0F98E828F83E8F3
:102A8000F0A3E9F0022B789007C2E0C0E08E828FBD
:102A900083D0E0F0022B789007C3E0C0E08E828FF5
:102AA00083D0E0F0022B789007C4E0C0E08E828FE4
:102AB00083D0E0F0022B787525107526007825125A
:102AC000198F7CC57D07EEFAEFFB120F907402128E
:102AD00017228A258B26852582852683022B7890CE
:102AE00007D5E0C0E08E828F83D0E0F0022B789093
:102AF0000BC8E0C0E08E828F83D0E0F0807A900730
:102B0000D71215FA8E828F83121606806B9007D625
:102B1000E0C0E08E828F83D0E0F0805C900BC7E055
:102B2000C0E08E828F83D0E0F0804D900BC9E0C072
:102B3000E08E828F83D0E0F0803E900869E0C0E0B4
:102B40008E828F83D0E0F0802F1211C4E9C0E08E16
:102B5000828F83D0E0F08020C3E5219427E5229482
:102B6000005012AA21AB221204B08E828F83EAF0A9
:102B7000A3EBF08003752302A9237F0602184E748D
:102B8000EC12177C74DA12170C89268A2B8B2C8C8A
:102B9000238D24743A121758E0F525908F3EAC41EE
:102BA000AD42740612161FAC41AD42AA2BAB2CA944
:102BB0002612115EE9FEEEC3940A4003022CF1EEE8
:102BC000F912119AE9FF900BC4E0640270047401D9
:102BD00080027400F5217821121993AD25EFFCEEE7
:102BE000F9AA23AB2412120C74011217227C147D53
:102BF000007900741212176A120FA88A278B288591
:102C0000272185282274121217727A1075F006EEA9
:102C1000A42424F9121362E9703B7C1079FF74122A
:102C200012176A121008E9702C7422121758AC821D
:102C3000AD837A0475F006EEA42425F9121362E937
:102C4000F5217412121772EFA2E0E433F9AA23AB54
:102C500024120534E974061217727A0C74702EF976
:102C6000121362E97079740612176A12118E7527B1
:102C700000E527C394045067E527F87900E875F06C
:102C800003A4C8AAF075F000A42AFA75F003E9A419
:102C90002AF97406121758E58228F521E58339F5DB
:102CA00022852182852283E0F8A3E0F9E849602BA0
:102CB000852182852283A3A3E0F529752A0078293E
:102CC00012198F852182852283E0FCA3E0FDAA23CF
:102CD000AB241207927402121722E905278092EFA3
:102CE000A2E1500D9007C1E0F9AA23AB2412079886
:102CF000E974046525700F900BC4E064027007AAA4
:102D000023AB24121206790074261217227F0C02BC
:102D1000184E74F212177C8924EAFEEBFF8C218D89
:102D20002275230AE524600C1460091460441460C1
:102D300064022DB6EEFAEFFB1211ACE9F523E523A0
:102D4000C3940A5071E5214522606B7525067526EE
:102D500000782512198FEEFCEFFDAA21AB22120F8D
:102D60009074021217228A258B2685258285268358
:102D70008044EEFAEFFB1211A6E9F523E523C39494
:102D80000A5033E5214522602DAA21AB22A9231246
:102D900011A0E98021EEFAEFFB1211B2E9F523E56B
:102DA00023C3940A5010E5214522600AAA21AB22D0
:102DB000A9231211A0E9A9237F0602184E74F2126A
:102DC000177C8A258B26E9FE7F1574FF6525700424
:102DD00074FF6526702A752100E521C3940A5014FA
:102DE000EEFC7A027B00A92112117CE960027F00CF
:102DF000052180E5EE60627AF47B1112098A805920
:102E0000AA25AB2612096C8A238B248523218524CD
:102E100022E521452260407C007D00E5212405FA61
:102E2000E43522FB852182852283A3A3A3A3E0F9B5
:102E300012115EE9F523E523C3940A500EEEFC7AE5
:102E4000027B00A92312117CE97F00EE600BAA210E
:102E5000AB221211F480027F14EFF97F0602184EA4
:102E600074EE12177C8A278B288C238D24741212FF
:102E70001758E0F525A3E0F52675211574FF6527A1
:102E8000700474FF6528701E7E00EEC3940A5061C2
:102E9000AC25AD26AA23AB24EEF9121182E960031A
:102EA0007521000E80E4AA27AB2812096C8A298BB1
:102EB0002AAE29AF2AEE4F60357C007D00EE240556
:102EC000FAE43FFB8E828F83A3A3A3A3E0F9121140
:102ED0005EE9F522E522C3940A5016AC25AD26AA78
:102EE00023AB24A922121182E975210080037521E8
:102EF00014A9217F0A02184E74F712177CEAFEEB20
:102F0000FF9007DBEEF0A3EFF09007C1E0FC7D003F
:102F10007A267B001204AAE9F5219007C1E0F91294
:102F200007147F0102184E74F212177C74EC12170A
:102F30000C8A238B24852382852483A3A3E024FA8F
:102F4000700302336624FD70030231E31470030240
:102F5000301714601024FD700302318B14700302CB
:102F600032210233D4AE23AF249007DBE0F8A3E094
:102F7000F9E84960669007DBE0F8A3E0F583888212
:102F8000E0F8A3E0F9E8496052EE240CF582E43F52
:102F9000F583E0F5217821121993EE240BF582E4F4
:102FA0003FF583E0F98E828F83A3A3A3A3A3A3A3FA
:102FB000A3A3E0FCA3E0FDEE2403FAE43FFB9007AB
:102FC000DBE0F8A3E0F5838882E0F8A3E0F58388EE
:102FD0008212177A740112172280398E828F83A38E
:102FE000A3A3A3A3A3A3A3A31219A69007D7121563
:102FF000E21205467402121722E9601879018E82E6
:103000008F83A3A3A3A3A3A3A3A3A3E0FAA3E0FB9B
:10301000120540E90233D4AE23AF248E828F83A3FE
:10302000E060030231398E828F83A3A3A3A3A3E0C0
:10303000A2E04003023139900875E0F8A3E0F9E816
:103040004960030231397C0E7D007900AA41AB4210
:10305000120FA88A218B22AA21AB22EE240CF58222
:10306000E43FF583E0F8A3E0F9E84960367521060E
:10307000752200782112198FEE240CF582E43FF5B9
:1030800083E02410FCA3E03400FD740212176A12DE
:103090000F9074021217228A218B228521828522A9
:1030A00083804F8E828F83A3A3A3E0FAA3E0FB1259
:1030B000096C8A258B26852521852622E521452236
:1030C000602D752506752600782512198FE52124B7
:1030D00005FCE43522FD740212176A120F90740287
:1030E0001217228A258B2685258285268380030256
:1030F00033D48E828F83A3A3A3A3A3E0A2E25004C0
:10310000D2F08002C2F0A2F0E433F87900740C121D
:103110001758E048F0A3E049F0EEFCEFFDAA41AB00
:1031200042121194E970127A027B009007C1E0F913
:10313000120FE4E979000233D69007DBE0F8A3E050
:10314000F9E84960439007DBE0F8A3E0F583888263
:10315000A3A3E0F8A3E0F9E849602D8E828F83A352
:10316000E0FC79018E828F83A3A3A3E0FAA3E0FBA6
:103170009007DBE0F8A3E0F5838882A3A3E0F8A33F
:10318000E0F583888212177A0233D4AE23AF2490FD
:1031900007DBE0F8A3E0F9E84960459007DBE0F8D9
:1031A000A3E0F5838882A3A3E0F8A3E0F9E84960EF
:1031B0002F852382852483A3E0FC79028E828F836E
:1031C000A3A3A3E0FAA3E0FB9007DBE0F8A3E0F5FC
:1031D000838882A3A3E0F8A3E0F583888212177A9C
:1031E0000233D4AE23AF247C007D00EE2404FAE445
:1031F0003FFB8E828F83A3A3A3E0F912115EE9F552
:1032000021E521C3940A5016EE240AFCE43FFD7A1E
:103210000475F006E521A42425F912135CE90233B4
:10322000D4AE23AF249007D6E06018900BC7E0F926
:103230008E828F83A3A3A3E0FAA3E0FB120540E9EB
:103240000233D4900BC4E0701579058E828F83A36E
:10325000A3A3E0FAA3E0FB120540E90233D48E8277
:103260008F83A3A3A3E0FAA3E0FB12096C8A258B4A
:10327000268525218526228E828F83A3A3A3A3A33F
:10328000A3A3E0A2E05071E5214522606885218278
:10329000852283A3A3A3A3E0605E8E828F83A3A372
:1032A000A3A3A3A3A3A3A3E0F8A3E0F9E8C4540F46
:1032B000F87900E85401F8E95400F9E8A2E0403850
:1032C000740E121772E5212405FAE43522FB8521DC
:1032D00082852283A3A3A3A3E0F912115EE97018EB
:1032E00079038E828F83A3A3A3E0FAA3E0FB1205E8
:1032F00040E90233D40233D4EE2405FCE43FFD85DB
:103300002182852283A3A3A3A3E0F98E828F83A3C6
:10331000A3A3E0FAA3E0FB1212009007DBE0F8A3FE
:10332000E0F9E849603E9007DBE0F8A3E0F5838828
:1033300082A3A3E0F8A3E0F9E84960287C007900C3
:103340008E828F83A3A3A3E0FAA3E0FB9007DBE0C8
:10335000F8A3E0F5838882A3A3E0F8A3E0F58388CF
:103360008212177A806E12060CE9706890086AE083
:103370006401701A1211CAE9FE90086A7400F07CA8
:103380000A7D0079007A6B7B08120FA8803C7E00D2
:10339000EEC3940A50348E21752200746B2521F5FA
:1033A0008274083522F583E06401701BEEF9121176
:1033B000D0E9F88E21752200746B2521F5827408FE
:1033C0003522F5837400F00E80C67950121368E937
:1033D000FE1211B8790174141217227F0602184EDA
:1033E00074F312177C74F212170C8922EAFEEBFFB9
:1033F0008C25AC41AD427A0E75F006E522A424205E
:10340000F9121362E970647C0679FFAA41AB42129B
:103410001008E97056740C121758E0F8A3E0F9E8A8
:10342000F521E5256005EE42218004EEF452218568
:103430002123752400740C121758E065237004A32F
:10344000E065246022E521F87900740C121758E831
:10345000F0A3E9F0AC41AD427A0E75F006E522A486
:103460002420F912135CE9790180027900740E12AC
:1034700017227F0502184E74F012177C74E612179B
:103480000C89248A258B26ECFEEDFF740C12177232
:103490007A0E75F006E524A42420F9121362E9607F
:1034A000030235A77C0679FF740C12176A12100804
:1034B000E960030235A7AC41AD427A0C7470252453
:1034C000F9121362E960030235A3752300AA41AB28
:1034D0004212118EE5254526702E7C0C7900AA41FA
:1034E000AB42121008E960030235897C0C7D00793B
:1034F00000AA41AB42120FA88A218B228521828526
:103500002283752301023589AC41AD42AA25AB2641
:103510001211888A278B28852721852822E52145B5
:10352000227030EE4F601BAC41AD427A007B00123E
:1035300011888A278B28A827A92888218922E84969
:10354000700479008063852182852283E525F0A3BC
:10355000E526F0852182852283A3A3E0F87900EE99
:10356000687002EF696022EEC0E0852182852283C7
:10357000A3A3D0E0F0EE4F700D85218285228374E5
:1035800000F0A37400F0752301E5236016AA41AB97
:103590004212118EAC41AD427A0C74702524F9129E
:1035A000135CE9790180027900741A1217227F08EE
:1035B00002184E74F712177CEAFEEBFF7B00EBC398
:1035C0009404504EEBF87900E875F003A4C8AAF013
:1035D00075F000A42AFA75F003E9A42AF9EC28F59D
:1035E00082ED39F583E06E7003A3E06F7021EBF894
:1035F0007900E875F003A4C8AAF075F000A42AFACF
:1036000075F003E9A42AF9EC28FAED39FB80070BE1
:1036100080AC7A007B007F0102184E74F712177C91
:103620007F00EFC3940440030236CAEFF87900E844
:1036300075F003A4C8ACF075F000A42CFC75F00381
:10364000E9A42CF9EA28F582EB39F583E0F4FCA330
:10365000E0F4FDEFF87900E875F003A4C8AEF0756A
:10366000F000A42EFE75F003E9A42EF9EA28F582F5
:10367000EB39F583ECF0A3EDF0EFF87900E875F0A5
:1036800003A4C8ACF075F000A42CFC75F003E9A409
:103690002CF9EA28F582EB39F583A3A3E0F4C0E026
:1036A000EFF87900E875F003A4C8ACF075F000A459
:1036B0002CFC75F003E9A42CF9EA28F582EB39F526
:1036C00083A3A3D0E0F00F0236227F0102184E74CC
:1036D000F012177C74F412170CEAFEEBFF8C218DAC
:1036E00022900875E0F8A3E0F9E849702CEE4F60ED
:1036F00006E52145227005790102397BEEFAEFFBE0
:103700001211ACE9900BCAF0900BCAE0C3940A40C6
:10371000081211BEE9900BCAF0900BCAE0C3940ADC
:103720004003023979900875E0F8A3E0F9E84960B0
:10373000030237C5EEFCEFFD7A0E75F006900BCA5A
:10374000E0A42420F912135CE9F5257C0C7D0079B6
:10375000FFAA41AB42120FA88A278B288527238511
:103760002824AC41AD427A0C900BCAE02470F912C7
:10377000135CE9F52675270E752800782712198F36
:10378000EEFCEFFD900BCAE0F87900E875F00EA4AE
:10379000C8AAF075F000A42AFA75F00EE9A42AF977
:1037A00074DD28FA740739FB120F90740212172285
:1037B0008A278B28A827A928900875E521F0A3E57A
:1037C00022F0023975900875E0F8A3E0C82406F5E8
:1037D00082C83400F583E0F8A3E0F9E8496043903B
:1037E0000875E0F8A3E0C82406F582C83400F58324
:1037F000E0FCA3E0FD7A1B75F006900BCAE0A42460
:1038000021F912135CE9F8900875E0F9A3E0C924E6
:1038100006F582C93400F5837400F0A37400F00249
:103820003975900875E0F8A3E0C8240AF582C83419
:1038300000F583E0F8A3E0F9E8496043900875E0FB
:10384000F8A3E0C8240AF582C83400F583E0FCA39D
:10385000E0FD7A1B75F006900BCAE0A42422F91251
:10386000135CE9F8900875E0F9A3E0C9240AF58231
:10387000C93400F5837400F0A37400F00239759028
:103880000875E0F8A3E0C8240CF582C83400F5837D
:10389000E0F8A3E0F9E8496043900875E0F8A3E098
:1038A000C8240CF582C83400F583E0FCA3E0FD7A5F
:1038B0001075F006900BCAE0A42423F912135CE9FA
:1038C000F8900875E0F9A3E0C9240CF582C934002A
:1038D000F5837400F0A37400F0023975900875E068
:1038E000F8A3E0C82408F582C83400F583E0F8A303
:1038F000E0F9E849606F900875E0F8A3E0C8240893
:10390000F582C83400F583E0FCA3E0FD7A1075F081
:1039100006900BCAE0A42424F912135CE9F5239065
:103920000875E0F8A3E0C82408F582C83400F583E0
:10393000E02410FCA3E03400FD7A0475F006900B3F
:10394000CAE0A42425F912135CE9F8900875E0F99F
:10395000A3E0C92408F582C93400F5837400F0A3FC
:103960007400F08010900869E060031212121211C6
:10397000FA79018006790080027901740C1217220D
:103980007F0802184E74F712177C74F212170CE9B4
:10399000FEAC41AD427A0E75F006EEA42420F91279
:1039A0001362E9700E740C121758E0F8A3E0F9E8FE
:1039B000F980027900740E1217227F0102184E74EA
:1039C000F412177C74F212170C8922EAFEEBFFE561
:1039D00022C3940A5004EE4F700479028041AC4136
:1039E000AD427A0E75F006E522A42420F912136286
:1039F000E9F521E521702675230675240078231248
:103A0000198F7402121772EEFAEFFB120F90740204
:103A10001217228A238B24852382852483A921746B
:103A20000E1217227F0402184E74F412177CEAFE5D
:103A3000EBFF752100E521C3940A504475230675F8
:103A40002400782312198FEEFCEFFDE521F87900B0
:103A5000E875F00EA4C8AAF075F000A42AFA75F073
:103A60000EE9A42AF974E328FA740739FB120FA2AD
:103A70007402121722E96004A9218006052180B58D
:103A8000790A7F0402184E74F412177CEAFEEBFFE9
:103A9000752100E521C3940A50447523067524005E
:103AA000782312198FEEFCEFFDE521F87900E87517
:103AB000F00EA4C8AAF075F000A42AFA75F00EE979
:103AC000A42AF974DD28FA740739FB120FA27402D4
:103AD000121722E96004A9218006052180B5790A20
:103AE0007F0402184E74F712177C74F012170CEA58
:103AF000FEEBFF752100E521C3940A5039AC41ADBE
:103B0000427A1075F006E521A42423F9121362E924
:103B100070207C1079FFAA41AB42121008E97012A4
:103B2000EEFCEFFDAA41AB42120516E97004A92193
:103B30008006052180C0790A74101217227F0102C5
:103B4000184E74F412177C752100E521C3940A40C5
:103B500003023C20E521F87900E875F00EA4C8AA1C
:103B6000F075F000A42AFA75F00EE9A42AF974DDC4
:103B700028FC740739FD7A0E75F006E521A424208F
:103B8000F9121362E97003023C1B7C067D0079FF89
:103B9000E521FA7B00EA75F00EA4CAA8F075F000E2
:103BA000A428F875F00EEBA428FB74DD2AFA74073C
:103BB0003BFB120FA88A238B24AE23AF247C067D07
:103BC0000079FFE521FA7B00EA75F00EA4CAA8F09F
:103BD00075F000A428F875F00EEBA428FB74E32A16
:103BE000FA74073BFB120FA88A238B24AC23AD2465
:103BF000E521F87900E875F00EA4C8AAF075F00088
:103C0000A42AFA75F00EE9A42AF974E928F5827459
:103C10000739F5837400F0A37400F00521023B4AD4
:103C2000900869E060031212121211FA7F04021860
:103C30004E74F712177C7E00EEC3940A50327C0655
:103C400079FFEEFA7B00EA75F00EA4CAA8F075F0D1
:103C500000A428F875F00EEBA428FB74DD2AFA7492
:103C6000073BFB121008E96004EEF980050E80C8DE
:103C7000790A7F0102184E74F712177C7E007F00CC
:103C8000EFC3940A502F7C0679FFEFFA7B00EA75A8
:103C9000F00EA4CAA8F075F000A428F875F00EEB99
:103CA000A428FB74DD2AFA74073BFB121008E970A4
:103CB000010E0F80CBEEF97F0102184E74F7121738
:103CC0007C7E007F00EFC3940A500DEE700AEFF97E
:103CD0001211D0E9FE0F80EDEEF97F0102184E744B
:103CE000F012177C74CB12170C8922900BCAE06576
:103CF00022701D7A017B009007C1E0F9120FEAE9FA
:103D00007A027B009007C1E0F9120FEAE912121E55
:103D100074271217727A0E75F006E522A42420F992
:103D2000121362E96003023E177C0679FF742712C2
:103D3000176A121008E96003023E177C0E7D0079B5
:103D4000FF742712176A120FA88A238B2485232554
:103D50008524267C1B7D0079FF740C12176A120FD4
:103D6000A88A278B288527238528247C0C7D007929
:103D7000FFAA41AB42120FA88A278B28AE27AF2893
:103D800074271217727A0E75F006E522A42420F922
:103D900012135CE9F521740C1217727A1B75F00688
:103DA000E522A42421F912135CE94221740C1217B4
:103DB000727A1B75F006E522A42422F912135CE93D
:103DC0004221740C1217727A1075F006E522A424B1
:103DD00023F912135CE94221740C1217727A1075E0
:103DE000F006E522A42424F912135CE94221740CA4
:103DF0001217727A0475F006E522A42425F912132D
:103E00005CE94221AC41AD427A0C74702522F91272
:103E1000135CE942218003752100A9217435121732
:103E2000227F0802184E74F712177CE9FEEE900705
:103E3000C1F01211B87F0102184E74F212177C897A
:103E400023EAFEEBFFEE5400F8EF5480F9E84960F6
:103E5000359007C1E0F9120FCC8A258B26A825A939
:103E60002688218922E8496012AA21AB221211E298
:103E7000E96008AA21AB22120FBAE9EE6400FAEF5A
:103E80006480FB023F3EEE5402602D7C007D007A90
:103E9000007B00121194E960187A017B009007C141
:103EA000E0F9120FE4E9EE6402FAEF6400FB023F6E
:103EB0003E7A027B00023F3EEEA2E0507D90087504
:103EC000E0F8A3E0F5838882A3A3A3E0FAA3E0FBD4
:103ED000121218E9605E9007DBE0F8A3E0F9E84908
:103EE00060459007DBE0F8A3E0F5838882A3A3E0B8
:103EF000F8A3E0F9E849602F7C007901900875E0AB
:103F0000F8A3E0F5838882A3A3A3E0FAA3E0FB90E3
:103F100007DBE0F8A3E0F5838882A3A3E0F8A3E041
:103F2000F583888212177A12121EEE6401FAEF648A
:103F300000FB800A7A017B0080047A007B007F0608
:103F400002184E74F712177CEAFEEBFF7521018E02
:103F5000828F83E02450601314601924E1701CEEFA
:103F6000FAEFFB121176E9F5218010EEFAEFFB1261
:103F700011E88007EEFAEFFB1211EEA9217F010292
:103F8000184E74F712177CEAFEEBFF8E828F83A324
:103F9000A3A3A3E0641E701179008E828F83A3A374
:103FA000E0FAA3E0FB121164E97F0102184E74F6F7
:103FB00012177CEAFEEBFF8E828F83A3A3A3A3E0FC
:103FC000703A8E218F22852182852283A3A3A3A309
:103FD000A3A3A31219A6852182852283A3A3A3A349
:103FE000A3E0FCA3E0FD852182852283A3A3E0FA60
:103FF000A3E0FB12116A7402121722E97F02021871
:104000004E74F712177CEAFEEBFF9007C1E0F98EC1
:10401000828F83A3E0FAA3E0FB120798E97F0102F5
:10402000184EC082C08374FF12170C1211C4E9C36A
:104030009402400B8541828542837402F080098599
:104040004182854283740AF0AC41AD427A01790520
:10405000120624E97401121722D083D082020132A1
:1040600074F212177C74E812170CEAFEEBFF892336
:104070008C218D227C187D007900AA41AB42120F61
:10408000A88A258B26AC25AD26854182854283EE04
:10409000F0A3EFF09007C3E0C0E07402121758D00D
:1040A000E0F09007C4E0C0E07403121758D0E0F0CD
:1040B000900BC9E0C0E07417121758D0E0F07415E7
:1040C000121758E054FEF8A3E054FFF9900BC8E033
:1040D000A2E0E433FA7B00E84AF8E94BF9741512E0
:1040E0001758E8F0A3E9F0900BC8E0A2E15004D221
:1040F000F08002C2F07415121758E054FDFAA3E0E4
:1041000054FFFBA2F0E433F87900E828F8E933F92A
:10411000EA48F8EB49F97415121758E8F0A3E9F0EA
:10412000900BC8E0A2E35004D2F08002C2F07415F4
:10413000121758E054F7FAA3E054FFFBA2F0E4335F
:10414000F525752600740378251216F9EA4525F839
:10415000EB4526F97415121758E8F0A3E9F0900B17
:10416000C8E0A2E45004D2F08002C2F07415121725
:1041700058E054EFFAA3E054FFFBA2F0E433F52536
:10418000752600740478251216F9EA4525F8EB45E2
:1041900026F97415121758E8F0A3E9F0900BC8E05F
:1041A000A2E55004D2F08002C2F07415121758E054
:1041B00054DFFAA3E054FFFBA2F0E433F5257526A3
:1041C00000740578251216F9EA4525F8EB4526F91D
:1041D0007415121758E8F0A3E9F0900BC8E0A2E2BA
:1041E0005004D2F08002C2F07415121758E054FB4C
:1041F000FAA3E054FFFBA2F0E433F5257526007422
:104200000278251216F9EA4525F8EB4526F97415CA
:10421000121758E8F0A3E9F09007C4E0602A75256A
:1042200010752600782512198F7CC57D077406123B
:104230001758AA82AB83120F9074021217228A2594
:104240008B268525828526839007D5E06012E5239D
:10425000600E7415121758E04402F0A3E04400F019
:104260009007D5E060067801790080047800790035
:104270007414121758E048F09007C2E06006780402
:1042800079008004780079007414121758E048F01F
:10429000AC21AD22AA41AB4212053AE974181217BB
:1042A000227F0602184E74F712177CEAFEEBFF75A8
:1042B00021009007D5E0600678017900800478003D
:1042C0007900E842219007C2E06006780479008016
:1042D0000478007900E84221A921EEFAEFFB1205EB
:1042E000F4E97F0102184E74EE12177C74E5121780
:1042F0000C8A258B26E9FF8C218D22742D121758EC
:10430000E0F52374086522700A75F006EFA42422F4
:10431000FE800875F006EFA42421FE7C1B7D007949
:1043200000AA41AB42120FA88A298B2A852927852A
:104330002A28AC41AD427A1BEEF9121362E97038BB
:10434000741A121758E0C39407402D741A121758A4
:10435000E0C394115022E523F524782412199374B4
:1043600001121772E521A2E0E433F9AA25AB261267
:10437000054C7401121722E9741B1217227F0A02DE
:10438000184E74F712177C12080AE97E00EEC394E7
:104390000A50557C0679FFEEFA7B00EA75F00EA410
:1043A000CAA8F075F000A428F875F00EEBA428FB5D
:1043B00074DD2AFA74073BFB121008E97027EEF847
:1043C0007900E875F00EA4C8AAF075F000A42AFAE6
:1043D00075F00EE9A42AF974DD28FA740739FB791F
:1043E00000120810E90E80A57F0102184E74F61223
:1043F000177C74FD12170CEAFEEBFF900877E0F8CB
:10440000A3E0F9E8497039752179752208782112FD
:10441000198F752102752200782112198F752116C6
:10442000752290782112198F7CFF7DFF7A017B0025
:104430001206667406121722900877EAF0A3EBF0D2
:10444000900877E0F8A3E0F9E849700302450AE430
:10445000F521F522782112198F7404121762882130
:104460008922782112198F740412176288218922F7
:10447000782112198F9008791219A679029008777D
:10448000E0FCA3E0FDEEFAEFFB12078674081217BA
:1044900022E9704A854182854283E0FA7B007401FB
:1044A000121758E0F87900E4C8F9EA28F521EB3949
:1044B000F522E52145226026782112198F90087790
:1044C000E0F8A3E0F5838882A3A3A3A3E0FCA3E024
:1044D000FDEEFAEFFB12116A7402121722E9E4F5FD
:1044E00021F522782112198F9008791219A67CFFE4
:1044F0007DFF900877E0FAA3E0FB120672740412C5
:104500001722900877EAF0A3EBF0900877E0F8A381
:10451000E0F9E84970047901800279007403121708
:10452000227F0202184EC082C083900875E0F8A373
:10453000E0F9E8496017900875E0FAA3E0FB120F74
:10454000BAE9F89008757400F0A37400F0900BCAF3
:10455000740AF0D083D082020132C082C083E99015
:104560000A42F002478474F712177CE99002E1F0E6
:104570007C197D037AFF7BFF12079E9002E274FF95
:10458000F0A3F0A3E4F0A3F0790512072C9002E168
:10459000E0F912064E7AB67B0712095A7F0102181B
:1045A0004E74F412177C8A218B22EB548060309079
:1045B00002E1E0F9120FCC8A238B24AE23AF24EE64
:1045C0004F60138E828F83E064B0700312073EEE5B
:1045D000FAEFFB120FBAAA21E5226480FB80047A6D
:1045E000007B0002475374F212177C74FC12170C04
:1045F000EAFEEBFFEE4F60387402121758EEF0A39C
:10460000EF1249B8ECF0A3ED1249B8AA82AB8312BD
:104610000648E9F5217073741212175812556CE5AB
:1046200023452460658E828F83124694EE4F700579
:1046300075210280557A067B001210268A258B266A
:10464000A825A926E8497005752113803D8882892F
:1046500083E412469EA3A3EEF0A3EF125A05E523CE
:10466000F0A3E524F09002E71247269002E76017D6
:10467000E0FCA3E08003EAFCEBFD8C828D83124713
:104680002670F38C828D83125491A9217404121721
:1046900022025C07A3A3A3A3E0FEA3E0FF22F0A3F2
:1046A000F0888289832274F212177C8923E975F0DD
:1046B00017A4FEAFF09002E6E4F09002E412472661
:1046C000600A12102C9002E4E4F0A3F0EEFAEFFB83
:1046D0001210268A218B22EA4522602FEEFCEFFD84
:1046E0007900120FA89002E4E521F0A3E522F07B07
:1046F000008008124710E4F0A3F00BEBC3952340B1
:10470000F2E5239002E6F0790080027913025C075B
:10471000EB75F017A4F8A9F09002E4E028FAA3E002
:10472000398A82F58322125227EA4B2274F4121737
:104730007C7900EAA2E0501B75213875228F782120
:1047400012198F7C047D007A447B0A1207267402BA
:104750001217227F0402184EC082C0839002E71213
:10476000478B601C88828983A3A3E06A7003A3E05F
:104770006B8882898370E8A3A3A3A31252238004C9
:104780007A007B00D083D082020132125CDAE849E1
:104790002274EE12177C74FC12170CEAFEEBFF85F4
:1047A0004182854283E4F0A3F0EE2402125475EEB8
:1047B00024051249A6EE2404F527EF124D8BE024C0
:1047C000FE603924FC604624FE605224FE605E24B4
:1047D000FE70030248AB24FE700302492324FE70DE
:1047E0000302493224FE700302494124FC70030293
:1047F000495024FE700302495F02499C90030074F3
:1048000017F0A3E41249C01203C602499C854182F5
:10481000854283AC82AD8312074402496C85418294
:10482000854283AC82AD8312074A02496C852521FB
:104830008526227402121758AC82AD8385218285A9
:10484000228312522312066C8A258B26AC25AD26B4
:10485000EC4D6042E4F525F526782512198F752573
:1048600000752603782512198F75250175260378A2
:104870002512198F74081217581219A67916125298
:104880001D1207867408121722E9F525700B1252C3
:10489000191203DE800F752501852182852283127E
:1048A00049AE12549185252102496F74021217589E
:1048B000AC82AD8385258285268312522312066C35
:1048C0008A298B2AAC29AD2AEC4D60438525828547
:1048D0002683A3A31219A6752900752A0378291225
:1048E000198F752901752A03782912198F740812F6
:1048F00017581219A6791612521D1207867408123B
:104900001722E9F522700B1252191203E4800F7579
:1049100022018525828526831249AE125491852273
:1049200021804C854182854283AC82AD8312075041
:10493000803A854182854283AC82AD8312075680DE
:104940002B854182854283AC82AD8312075C801C3B
:10495000854182854283AC82AD83120762800D85DA
:104960004182854283AC82AD83120768E9F521E577
:104970002160298E828F83A3E06414601F852782C3
:10498000852883E09003001249B8125CD690030199
:10499000125491E521A31249C01203C0EEFAEFFBB5
:1049A0001206EA02537DF525EF3400F52622125C4B
:1049B000DA85418285428322F085418285428322C5
:1049C000F07C007D03852382852483125227227484
:1049D000EE12177C74FC12170C8A238B248C278D03
:1049E00028EA2405F521EB3400F5227C157D0079B9
:1049F000007A007B03120FA8E5212402F525E522A9
:104A00001249A985418285428385822985832A7836
:104A10002912198F852182852283A3A3A3A3124E75
:104A2000D312198FE5212405F529E5223400F52A52
:104A3000782912198F85258285268312522D120618
:104A40006674061217228A298B2AAE29AF2AE5231B
:104A50002402F523E524125478EE4F7003024B959F
:104A60008017740212175812522388828983EAF041
:104A7000A3EBF0900300E004F0900300E0C3940582
:104A80004003024B95E4F529F52A782912198F7510
:104A900029E9752A02782912198F7529EA752A02DF
:104AA000782912198F74061217581219A67910EE68
:104AB000FCEFFD12521D1207867408121722E970CE
:104AC0005E852182852283A3A3A3A3A3A3A3E0F8E9
:104AD0009002E9E0687048124ED312198F7CEA7D8B
:104AE00002E5212408FAE5223400FB120FA2740229
:104AF000121722E960298E828F83A3A3A3A31252E7
:104B000023900300E0F529740278291216F9740144
:104B10002529F5827403352AF583EAF0A3EBF074B6
:104B20000212175885822985832A782912198F74D1
:104B3000021217581219A6852582852683125CEB6E
:104B400012067274041217228A298B2AAE29AF2A00
:104B5000900300E0F529752A00740278291216F9ED
:104B600074002529F87403352AF988828983A312F1
:104B700047267003024A59E82403F8E93400F9EEA5
:104B80004F6003024A628882898374FFF0A3F09029
:104B90000300E004F0900300E0600A1252191203CF
:104BA000D27900800B852182852283125488790A6C
:104BB00002537D74EA12177C74FE12170C8C2B8D35
:104BC0002CEA2405F525EB125CF5124698752100B8
:104BD000752200EA2402F529EB3400F52A8541828A
:104BE000854283858223858324782312198F852526
:104BF00082852683A3A3A3A3124D9512198FE525C1
:104C00002405F523E526125478782312198F85257B
:104C100082852683125CE912066674061217228AC0
:104C2000238B24EA45247003024D46EA2404F52729
:104C3000EB124D8B1246988A828B83A3A3A3E0F9D3
:104C4000852982852A83125223120654E9F52260AF
:104C500003024D46E4F52DF52E782D12198F752D92
:104C6000E9752E02782D12198F752DEA752E0278AE
:104C70002D12198F74061217581219A67913AC2326
:104C8000AD24852982852A8312522312078674084F
:104C9000121722E9F5226003024D469002E9E0F87E
:104CA000E5217009E02402900301F08017900301D0
:104CB000E0FCE82402FAE43400FBEA6C7001EB60EB
:104CC00003024D4A852182AA82124ECA9414124EC2
:104CD000C25073852782852883E0C0E074022A12BF
:104CE0004D82D0E0F00521852782852883A3E0C08E
:104CF000E085212374022523124D82D0E0F00521A6
:104D00009002E9124D9512198F7CEA7D02852123CC
:104D100074022523FA74033400FB120F90740212FC
:104D200017229002E9E02521F52174FF6E700374CB
:104D3000FF6F6012EE24010EEF3400FFE521C394F3
:104D4000145003024BDDE521601312510E852982B8
:104D5000852A831252231203D879008014E5227029
:104D60000375220A852B82852C83EEF0A3EFF0A930
:104D70002274021217227F0E02184E85212574021A
:104D80002525F58274033400F583223400F5288547
:104D90002782F58322125A182274EE12177C74FEB1
:104DA00012170C8C278D28EA2405F525EB1249A94A
:104DB000752400900300E4F0F523EA2402F521EBCA
:104DC0003400F5228049900300E0FA9002E9E0F80F
:104DD000124ECA9417124EC2400D900300E0F874B0
:104DE00016C3989002E9F0124ED312198F7CEA7D17
:104DF0000274012AFA74033400FB120F9074021239
:104E000017229002E9E0F8900300E028F00523E57E
:104E1000252416F582E526124D86E0F8E523C39891
:104E20004003024EAB900300E0C39416507DE5238F
:104E3000C333F8E433F9E52528FEE52639FF85413B
:104E400082854283AC82AD838E828F83125223127D
:104E5000066C8A298B2AAC29AD2AEC4D7005752485
:104E6000018043E4F529F52A782912198F7529E97B
:104E7000752A02782912198F7529EA752A0278296C
:104E800012198F74061217581219A67916852182E5
:104E90008522831252231207867408121722E9F51D
:104EA000247003024DC612548480107C007D03855B
:104EB00021828522831252231203EAA9247402025A
:104EC000537FE99400C365D03322EA28F8E4340024
:104ED000F9E822E0F529752A0078292274EA1217E8
:104EE0007C74FC12170C8A258B268C2B8D2CEA24C3
:104EF00005F523EB125478752100752200E5232473
:104F000002F529E5243400F52A7402121758858227
:104F100027858328782712198F852382852483A3E8
:104F2000A3A3A31259C412198FE5232405F527E57D
:104F3000243400F528782712198F852982852A8341
:104F400012547E12521D12066674061217228A2708
:104F50008B28AE27AF28E5252402F527E526340067
:104F6000F52880408882898374FFF00521124D7BEB
:104F700074FFF005219002E9E0F5257526007825FB
:104F800012198F7CEA7D0285212574022525FA7489
:104F9000033400FB120F9074021217229002E9E012
:104FA0002521F521EE4F60718E828F83A3A3A3E0AC
:104FB000F9852782852883125223120654E9F522A7
:104FC000EE24041249A6E97044E4F52DF52E782D5F
:104FD00012198F752DE9752E02782D12198F752DE6
:104FE000EA752E02782D12198F74081217581219AB
:104FF000A67911EEFCEFFD852782852883125223C6
:105000001207867408121722E9F522602785258287
:10501000852683125104125491E52170030250EA4F
:1050200012510E8527828528831252231203F079AC
:10503000000250FF852182AA82EA9002E97009E00D
:105040002404900301F08022E0F8900301E0F52DA4
:10505000E82404FCE43400FDEC652D7001ED70C023
:10506000124ECA9412124EC250B6852582852683EE
:10507000E0C0E074022A124D82D0E0F005218525BF
:1050800082852683A3E0C0E0124D7BD0E012512040
:10509000858225858326782512198F740412175866
:1050A0001219A6852982852A83125CEB1206727476
:1050B000041217228A258B26AE25AF26852125745A
:1050C000022525F874033400F9EE4F7003024F6493
:1050D000854182854283E088828983125120A3E042
:1050E000C0E0124D7BD0E0024F72E52270037522C2
:1050F0000A852382852483125104125491A92274B3
:1051000004024D73125CDA852B82852C8322900376
:1051100001E0F5F0E52184900300F07C007D03229E
:10512000F005218541828542832274EC12177C743C
:10513000FE12170C8A218B228C278D28EA2405FE6B
:10514000EB3400FF854182854283AC82AD838E8241
:105150008F8312522312066C8A238B24EE2418129A
:1051600049A6EA452470030251F412536650328571
:10517000418285428312522312077A8A298B2AEAB6
:10518000452A606B7912AC23AD2485218285228368
:10519000125223852982852A8312177AE9F5237012
:1051A00058E4F523F524782312198F8E828F83A378
:1051B000A3E0F523782312198FEE24031254757897
:1051C0002312198F8E828F8312522D12078C740630
:1051D000121722E9F5237021852582852683E07048
:1051E0001F8521828522831252231203F6801175B6
:1051F000230E80097523018004E523600312548483
:10520000852582852683E0600479008002A92374C5
:10521000021217227F0C02184E7C007D0385238228
:1052200085248312522722E0FAA3E0FB22E0FCA3AC
:10523000E0FD8521828522831252272274EE121707
:105240007C74FE12170C8A218B228C258D26EA2471
:1052500005FEEB3400FF752700854182854283AC53
:1052600082AD838E828F8312522312066C8A238B27
:1052700024EA452470030253521253665035854187
:105280008285428312522312077A8A278B28EA45A5
:1052900028605E7912AC23AD248521828522831299
:1052A000522385278285288312177AE9F527600320
:1052B00002535585218285228312556CAA23FB1245
:1052C000076E8A298B2AA829A92AE849701E7AFF25
:1052D0007BFF12076E8A298B2AA829A92AE8496030
:1052E0006C88828983E523F0A3E524F07523008090
:1052F0000775270E805F05239002E6E0FAE523C3D9
:105300009A504AE52375F017A4FAABF08882898396
:10531000A3A3E02AFAA3E03BFB8A828B8312547E8C
:10532000EC4D70D2752317752400782312198FEE77
:10533000FCEFFD120F907402121722EEFCEFFD85B8
:1053400021828522831252231203FC8014752709BF
:105350008003752701125CD285258285268312542D
:1053600091A927024EBDE5212402F521E522340052
:10537000F5228A828B83A3A3A3E0A2E52274041200
:1053800017227F0A02184E74EC12177C8C298D2A82
:10539000EA2405F525EB1249A9752800EA2402F54F
:1053A00023EB125478852382F58312522312076E61
:1053B0008A218B22EA4522700302546A75270080F5
:1053C00071852582852683E06401704F8E828F83EC
:1053D000A3A31219A68E828F83A3A3A3A3E0F52B08
:1053E000752C00782B12198FEE2405F52BEF340065
:1053F000F52C782B12198F12521D12078C7406127D
:105400001722E9F5286014852582852683E4F012A9
:105410005CD2852982852A831254917C177D00797C
:1054200000EEFAEFFB120FA88E828F83E4F0A3F058
:1054300005279002E6E0F8E527C398501EE527759A
:10544000F017A4F8A9F0852182852283A3A3125C1A
:10545000FF12547EEC4D60030253C18521828522E8
:105460008374FFF0A3F0E528700612521D120402A7
:10547000A928025214F523EF3400F52422A3E0FCFE
:10548000A3E0FD228E828F83125CDA852782852835
:1054900083E8F0A3E9F022C082C0839002E2E06AD0
:1054A0007003A3E06B70067AE27B0280047A007BD3
:1054B00000024784C082C08378008C828D83E06ABA
:1054C0007003A3E06B7010E875F003A4F8A9F0EC8A
:1054D00028FAED39FB8015088C828D83A3A3A3E005
:1054E0006A7003A3E06B60DF7A007B00024784747C
:1054F000F612177C1207388A828B83E58245837007
:10550000067A007B008007A3A3A3A3125223025BA9
:105510008374F212177CE9FE740E12175812556C40
:1055200074101217581259E48C828D83E064027053
:1055300036A3125CE0F525A3E0F9A8257402687093
:1055400003742969702175250275260078251219C2
:105550008F782112198F782312198FEEF91207B064
:10556000740612172280027901025C07E0F523A37A
:10557000E0F5242274E812177C74FB12170CE985FD
:105580004182854283F08A2F8B30ECFEEDFF752936
:1055900000741D121758125CD6741D12175812543D
:1055A000918E828F83A3A3A3E0A2E4502D741D12D9
:1055B000175812522312077A8A828B83E582458319
:1055C00070030259B5790AEEFCEFFDAA2FAB301239
:1055D000177AE9F52960030259B8741F1217581297
:1055E00059E4742112175812556C7423121758E09D
:1055F000F527A3E0F5288E828F83E0640260030222
:105600005963A3125CD6852182852283A385822BD0
:1056100085832CEE24061249A688828983E0FAA3AA
:10562000E0F9EA2400F52DE439F52E782D121A1947
:105630000100002801285856070002281D5703289A
:105640008A560029545801297F58022920580329D5
:1056500054580429FE586359E52745286003025928
:105660005E8525828526831259D9FAE9FB8A828BC9
:1056700083E0852382852483125A0F12198F8A8230
:105680008B83A3E0FCA3E00258E8E52745286003EC
:1056900002595E8523828524837401F01259EC85BA
:1056A0002182852283F07C007D008E828F83A3A3DC
:1056B000A3A3E02401FAA3E03400FB12066CEA4B3A
:1056C00060418A828B83E02402F8852382852483CB
:1056D000E028F0EA2404F8EB3400F988828983E0BA
:1056E000852B82852C83125A21125A0F12198F8A08
:1056F000828B8312547DE5212403FAE5223400FBDA
:105700000258ED852382852483E02404F07C047D07
:10571000007900AA2BAB2C120FA80259B8E5274537
:1057200028600302595E1259ECFEA3E0FF85238234
:105730008524837404F0EE852182852283F0EF8531
:105740002B82852C83F07403121758AC82AD83EE44
:10575000FAEFFB12066C8A258B26EA4526700302B7
:1057600058018A828B83A3A312469474011217589E
:10577000858227858328782712198F740512175878
:105780001219A67CFF7DFF12067274041217228B79
:1057900028EA452870338525828526831259C4124C
:1057A000198F852582852683A31219A67C027D0088
:1057B0007A127B9012049E7404121722E9700A7404
:1057C0000112175874FFF0A3F08E828F83E06402F9
:1057D0007039752502752600782512198F8E828FF3
:1057E0008312547DE5212404FAE5223400FB120FD4
:1057F000907402121722852382852483E02402807C
:10580000097401121758EEF0A3EFF0740112175843
:105810001259D5F07401121758A31259CD025958D4
:10582000E5274528600302595E8525828526831277
:10583000547EAA2FAB301207A4852382852483745B
:1058400002F0EA852182852283F0852B82852C83D4
:10585000EB02595BE5274528600302595E1259ECBB
:10586000F8A3E0F98523828524837402F0E885217A
:1058700082852283F0E9852B82852C8302595B8502
:105880002582852683125223120F8AEAFC8C82A875
:1058900082C39527E49528405FE865277002E528D4
:1058A00070047C008022854182854283E0FAE527EE
:1058B0002AFAE5283400FBC3EA98EB94005003E091
:1058C0008005E527CCC39CFCEC852382852483F0EE
:1058D0008C23752400782312198F852582852683D1
:1058E000E02527FCA3E03528FDAA21AB22120F906A
:1058F00074021217220259B87529070259B8E52710
:105900004528705A852582852683125CD685238298
:1059100085248374071246A01259CD1246A0A3E035
:10592000852B82852C83F0E82402FAE93400FB8A77
:10593000828B831259CD1259FC1259D5A3125A05E4
:105940001259DEF0E82405F8E93400F988828983E9
:105950001259DEA3125A21A3A3A3A3F0805A7529DA
:105960000B8055741D1217581252231207388A8261
:105970008B83E5824583603D125CD688258926E8C5
:1059800045266031782712198F782312198F7821D4
:1059900012198F7406121758E0F9EEFCEFFDAA2FCA
:1059A000AB3085258285268312177A74061217225A
:1059B000E9F529800375290EA92974051217227F9C
:1059C0001002184EE0F527752800782722E085217F
:1059D0008285228322125A2B22125CDAE822125A82
:1059E0002BA3A322E0F521A3E0F5222285258285C1
:1059F0002683E0F8A3E0F5838882E022A3A3F08A5F
:105A0000828B83A322F088828983A3A3A3A322F09D
:105A10008A828B83125A1822E0F52375240078239A
:105A200022F088828983A3125A2B22E08521828565
:105A30002283A3A32274EE12177C74FE12170C8A21
:105A4000238B24ECFAEDFB7414121758E0F529A30C
:105A5000E0F52A7416121758E0FE7418121758E071
:105A6000F527A3E0F528854182854283AC82AD838A
:105A700012066C8A258B26EA452660498541828577
:105A800042831252231207388A828B83E582458330
:105A9000602FA3A31259E4E5214522602478271240
:105AA000198F782912198FEEF9AC25AD26AA23ABF0
:105AB0002485218285228312177A7404121722808A
:105AC00006790E80027901024EBD74F612177C74BD
:105AD000FE12170C740C1217581259D98541828581
:105AE0004283F07401121758E9F0E4F521F52278A9
:105AF0002112198F752102782112198F740412173F
:105B000058858221858322782112198F12078C747F
:105B1000061217227402121722806874F712177C7B
:105B2000EAFEEBFF89217C197D031207A4EA5402E7
:105B3000600BA921EEFAEFFB1206608002790102E8
